{
	"contracts/Health_record_program.sol": {
		"HealthRecordSystem": {
			"abi": [
				{
					"inputs": [
						{
							"internalType": "uint256",
							"name": "_id",
							"type": "uint256"
						},
						{
							"internalType": "string",
							"name": "_name",
							"type": "string"
						},
						{
							"internalType": "string",
							"name": "_qualification",
							"type": "string"
						},
						{
							"internalType": "string",
							"name": "_workPlace",
							"type": "string"
						}
					],
					"name": "RegisterDoctor",
					"outputs": [],
					"stateMutability": "nonpayable",
					"type": "function"
				},
				{
					"inputs": [
						{
							"internalType": "uint256",
							"name": "_id",
							"type": "uint256"
						}
					],
					"name": "ViewRegisterDoctor",
					"outputs": [
						{
							"internalType": "uint256",
							"name": "",
							"type": "uint256"
						},
						{
							"internalType": "string",
							"name": "",
							"type": "string"
						},
						{
							"internalType": "string",
							"name": "",
							"type": "string"
						},
						{
							"internalType": "string",
							"name": "",
							"type": "string"
						}
					],
					"stateMutability": "view",
					"type": "function"
				}
			],
			"devdoc": {
				"kind": "dev",
				"methods": {},
				"version": 1
			},
			"evm": {
				"assembly": "    /* \"contracts/Health_record_program.sol\":71:762  contract HealthRecordSystem... */\n  mstore(0x40, 0x80)\n  callvalue\n  dup1\n  iszero\n  tag_1\n  jumpi\n  0x00\n  dup1\n  revert\ntag_1:\n  pop\n  dataSize(sub_0)\n  dup1\n  dataOffset(sub_0)\n  0x00\n  codecopy\n  0x00\n  return\nstop\n\nsub_0: assembly {\n        /* \"contracts/Health_record_program.sol\":71:762  contract HealthRecordSystem... */\n      mstore(0x40, 0x80)\n      callvalue\n      dup1\n      iszero\n      tag_1\n      jumpi\n      0x00\n      dup1\n      revert\n    tag_1:\n      pop\n      jumpi(tag_2, lt(calldatasize, 0x04))\n      shr(0xe0, calldataload(0x00))\n      dup1\n      0x09f9f9ae\n      eq\n      tag_3\n      jumpi\n      dup1\n      0x2403d2e3\n      eq\n      tag_4\n      jumpi\n    tag_2:\n      0x00\n      dup1\n      revert\n        /* \"contracts/Health_record_program.sol\":249:542  function RegisterDoctor(uint _id,string memory _name, string memory _qualification, string memory _workPlace) public ... */\n    tag_3:\n      tag_5\n      0x04\n      dup1\n      calldatasize\n      sub\n      dup2\n      add\n      swap1\n      tag_6\n      swap2\n      swap1\n      tag_7\n      jump\t// in\n    tag_6:\n      tag_8\n      jump\t// in\n    tag_5:\n      stop\n        /* \"contracts/Health_record_program.sol\":546:759  function ViewRegisterDoctor(uint _id) public view returns(uint ,string memory , string memory , string memory ) {... */\n    tag_4:\n      tag_9\n      0x04\n      dup1\n      calldatasize\n      sub\n      dup2\n      add\n      swap1\n      tag_10\n      swap2\n      swap1\n      tag_11\n      jump\t// in\n    tag_10:\n      tag_12\n      jump\t// in\n    tag_9:\n      mload(0x40)\n      tag_13\n      swap5\n      swap4\n      swap3\n      swap2\n      swap1\n      tag_14\n      jump\t// in\n    tag_13:\n      mload(0x40)\n      dup1\n      swap2\n      sub\n      swap1\n      return\n        /* \"contracts/Health_record_program.sol\":249:542  function RegisterDoctor(uint _id,string memory _name, string memory _qualification, string memory _workPlace) public ... */\n    tag_8:\n        /* \"contracts/Health_record_program.sol\":399:402  _id */\n      dup4\n        /* \"contracts/Health_record_program.sol\":386:395  Regdoctor */\n      0x00\n        /* \"contracts/Health_record_program.sol\":386:398  Regdoctor.id */\n      dup1\n      add\n        /* \"contracts/Health_record_program.sol\":386:402  Regdoctor.id=_id */\n      dup2\n      swap1\n      sstore\n      pop\n        /* \"contracts/Health_record_program.sol\":432:437  _name */\n      dup3\n        /* \"contracts/Health_record_program.sol\":417:426  Regdoctor */\n      0x00\n        /* \"contracts/Health_record_program.sol\":417:431  Regdoctor.name */\n      0x01\n      add\n        /* \"contracts/Health_record_program.sol\":417:437  Regdoctor.name=_name */\n      swap1\n      dup2\n      tag_16\n      swap2\n      swap1\n      tag_17\n      jump\t// in\n    tag_16:\n      pop\n        /* \"contracts/Health_record_program.sol\":476:490  _qualification */\n      dup2\n        /* \"contracts/Health_record_program.sol\":452:461  Regdoctor */\n      0x00\n        /* \"contracts/Health_record_program.sol\":452:475  Regdoctor.qualification */\n      0x02\n      add\n        /* \"contracts/Health_record_program.sol\":452:490  Regdoctor.qualification=_qualification */\n      swap1\n      dup2\n      tag_18\n      swap2\n      swap1\n      tag_17\n      jump\t// in\n    tag_18:\n      pop\n        /* \"contracts/Health_record_program.sol\":525:535  _workPlace */\n      dup1\n        /* \"contracts/Health_record_program.sol\":505:514  Regdoctor */\n      0x00\n        /* \"contracts/Health_record_program.sol\":505:524  Regdoctor.workPlace */\n      0x03\n      add\n        /* \"contracts/Health_record_program.sol\":505:535  Regdoctor.workPlace=_workPlace */\n      swap1\n      dup2\n      tag_19\n      swap2\n      swap1\n      tag_17\n      jump\t// in\n    tag_19:\n      pop\n        /* \"contracts/Health_record_program.sol\":249:542  function RegisterDoctor(uint _id,string memory _name, string memory _qualification, string memory _workPlace) public ... */\n      pop\n      pop\n      pop\n      pop\n      jump\t// out\n        /* \"contracts/Health_record_program.sol\":546:759  function ViewRegisterDoctor(uint _id) public view returns(uint ,string memory , string memory , string memory ) {... */\n    tag_12:\n        /* \"contracts/Health_record_program.sol\":604:608  uint */\n      0x00\n        /* \"contracts/Health_record_program.sol\":610:623  string memory */\n      0x60\n        /* \"contracts/Health_record_program.sol\":626:639  string memory */\n      dup1\n        /* \"contracts/Health_record_program.sol\":642:655  string memory */\n      0x60\n        /* \"contracts/Health_record_program.sol\":679:688  Regdoctor */\n      0x00\n        /* \"contracts/Health_record_program.sol\":679:691  Regdoctor.id */\n      dup1\n      add\n      sload\n        /* \"contracts/Health_record_program.sol\":692:701  Regdoctor */\n      0x00\n        /* \"contracts/Health_record_program.sol\":692:706  Regdoctor.name */\n      0x01\n      add\n        /* \"contracts/Health_record_program.sol\":707:716  Regdoctor */\n      0x00\n        /* \"contracts/Health_record_program.sol\":707:730  Regdoctor.qualification */\n      0x02\n      add\n        /* \"contracts/Health_record_program.sol\":732:741  Regdoctor */\n      0x00\n        /* \"contracts/Health_record_program.sol\":732:751  Regdoctor.workPlace */\n      0x03\n      add\n        /* \"contracts/Health_record_program.sol\":671:752  return (Regdoctor.id,Regdoctor.name,Regdoctor.qualification, Regdoctor.workPlace) */\n      dup3\n      dup1\n      sload\n      tag_21\n      swap1\n      tag_22\n      jump\t// in\n    tag_21:\n      dup1\n      0x1f\n      add\n      0x20\n      dup1\n      swap2\n      div\n      mul\n      0x20\n      add\n      mload(0x40)\n      swap1\n      dup2\n      add\n      0x40\n      mstore\n      dup1\n      swap3\n      swap2\n      swap1\n      dup2\n      dup2\n      mstore\n      0x20\n      add\n      dup3\n      dup1\n      sload\n      tag_23\n      swap1\n      tag_22\n      jump\t// in\n    tag_23:\n      dup1\n      iszero\n      tag_24\n      jumpi\n      dup1\n      0x1f\n      lt\n      tag_25\n      jumpi\n      0x0100\n      dup1\n      dup4\n      sload\n      div\n      mul\n      dup4\n      mstore\n      swap2\n      0x20\n      add\n      swap2\n      jump(tag_24)\n    tag_25:\n      dup3\n      add\n      swap2\n      swap1\n      0x00\n      mstore\n      keccak256(0x00, 0x20)\n      swap1\n    tag_26:\n      dup2\n      sload\n      dup2\n      mstore\n      swap1\n      0x01\n      add\n      swap1\n      0x20\n      add\n      dup1\n      dup4\n      gt\n      tag_26\n      jumpi\n      dup3\n      swap1\n      sub\n      0x1f\n      and\n      dup3\n      add\n      swap2\n    tag_24:\n      pop\n      pop\n      pop\n      pop\n      pop\n      swap3\n      pop\n      dup2\n      dup1\n      sload\n      tag_27\n      swap1\n      tag_22\n      jump\t// in\n    tag_27:\n      dup1\n      0x1f\n      add\n      0x20\n      dup1\n      swap2\n      div\n      mul\n      0x20\n      add\n      mload(0x40)\n      swap1\n      dup2\n      add\n      0x40\n      mstore\n      dup1\n      swap3\n      swap2\n      swap1\n      dup2\n      dup2\n      mstore\n      0x20\n      add\n      dup3\n      dup1\n      sload\n      tag_28\n      swap1\n      tag_22\n      jump\t// in\n    tag_28:\n      dup1\n      iszero\n      tag_29\n      jumpi\n      dup1\n      0x1f\n      lt\n      tag_30\n      jumpi\n      0x0100\n      dup1\n      dup4\n      sload\n      div\n      mul\n      dup4\n      mstore\n      swap2\n      0x20\n      add\n      swap2\n      jump(tag_29)\n    tag_30:\n      dup3\n      add\n      swap2\n      swap1\n      0x00\n      mstore\n      keccak256(0x00, 0x20)\n      swap1\n    tag_31:\n      dup2\n      sload\n      dup2\n      mstore\n      swap1\n      0x01\n      add\n      swap1\n      0x20\n      add\n      dup1\n      dup4\n      gt\n      tag_31\n      jumpi\n      dup3\n      swap1\n      sub\n      0x1f\n      and\n      dup3\n      add\n      swap2\n    tag_29:\n      pop\n      pop\n      pop\n      pop\n      pop\n      swap2\n      pop\n      dup1\n      dup1\n      sload\n      tag_32\n      swap1\n      tag_22\n      jump\t// in\n    tag_32:\n      dup1\n      0x1f\n      add\n      0x20\n      dup1\n      swap2\n      div\n      mul\n      0x20\n      add\n      mload(0x40)\n      swap1\n      dup2\n      add\n      0x40\n      mstore\n      dup1\n      swap3\n      swap2\n      swap1\n      dup2\n      dup2\n      mstore\n      0x20\n      add\n      dup3\n      dup1\n      sload\n      tag_33\n      swap1\n      tag_22\n      jump\t// in\n    tag_33:\n      dup1\n      iszero\n      tag_34\n      jumpi\n      dup1\n      0x1f\n      lt\n      tag_35\n      jumpi\n      0x0100\n      dup1\n      dup4\n      sload\n      div\n      mul\n      dup4\n      mstore\n      swap2\n      0x20\n      add\n      swap2\n      jump(tag_34)\n    tag_35:\n      dup3\n      add\n      swap2\n      swap1\n      0x00\n      mstore\n      keccak256(0x00, 0x20)\n      swap1\n    tag_36:\n      dup2\n      sload\n      dup2\n      mstore\n      swap1\n      0x01\n      add\n      swap1\n      0x20\n      add\n      dup1\n      dup4\n      gt\n      tag_36\n      jumpi\n      dup3\n      swap1\n      sub\n      0x1f\n      and\n      dup3\n      add\n      swap2\n    tag_34:\n      pop\n      pop\n      pop\n      pop\n      pop\n      swap1\n      pop\n      swap4\n      pop\n      swap4\n      pop\n      swap4\n      pop\n      swap4\n      pop\n        /* \"contracts/Health_record_program.sol\":546:759  function ViewRegisterDoctor(uint _id) public view returns(uint ,string memory , string memory , string memory ) {... */\n      swap2\n      swap4\n      pop\n      swap2\n      swap4\n      jump\t// out\n        /* \"#utility.yul\":7:82   */\n    tag_37:\n        /* \"#utility.yul\":40:46   */\n      0x00\n        /* \"#utility.yul\":73:75   */\n      0x40\n        /* \"#utility.yul\":67:76   */\n      mload\n        /* \"#utility.yul\":57:76   */\n      swap1\n      pop\n        /* \"#utility.yul\":7:82   */\n      swap1\n      jump\t// out\n        /* \"#utility.yul\":88:205   */\n    tag_38:\n        /* \"#utility.yul\":197:198   */\n      0x00\n        /* \"#utility.yul\":194:195   */\n      dup1\n        /* \"#utility.yul\":187:199   */\n      revert\n        /* \"#utility.yul\":211:328   */\n    tag_39:\n        /* \"#utility.yul\":320:321   */\n      0x00\n        /* \"#utility.yul\":317:318   */\n      dup1\n        /* \"#utility.yul\":310:322   */\n      revert\n        /* \"#utility.yul\":334:411   */\n    tag_40:\n        /* \"#utility.yul\":371:378   */\n      0x00\n        /* \"#utility.yul\":400:405   */\n      dup2\n        /* \"#utility.yul\":389:405   */\n      swap1\n      pop\n        /* \"#utility.yul\":334:411   */\n      swap2\n      swap1\n      pop\n      jump\t// out\n        /* \"#utility.yul\":417:539   */\n    tag_41:\n        /* \"#utility.yul\":490:514   */\n      tag_80\n        /* \"#utility.yul\":508:513   */\n      dup2\n        /* \"#utility.yul\":490:514   */\n      tag_40\n      jump\t// in\n    tag_80:\n        /* \"#utility.yul\":483:488   */\n      dup2\n        /* \"#utility.yul\":480:515   */\n      eq\n        /* \"#utility.yul\":470:533   */\n      tag_81\n      jumpi\n        /* \"#utility.yul\":529:530   */\n      0x00\n        /* \"#utility.yul\":526:527   */\n      dup1\n        /* \"#utility.yul\":519:531   */\n      revert\n        /* \"#utility.yul\":470:533   */\n    tag_81:\n        /* \"#utility.yul\":417:539   */\n      pop\n      jump\t// out\n        /* \"#utility.yul\":545:684   */\n    tag_42:\n        /* \"#utility.yul\":591:596   */\n      0x00\n        /* \"#utility.yul\":629:635   */\n      dup2\n        /* \"#utility.yul\":616:636   */\n      calldataload\n        /* \"#utility.yul\":607:636   */\n      swap1\n      pop\n        /* \"#utility.yul\":645:678   */\n      tag_83\n        /* \"#utility.yul\":672:677   */\n      dup2\n        /* \"#utility.yul\":645:678   */\n      tag_41\n      jump\t// in\n    tag_83:\n        /* \"#utility.yul\":545:684   */\n      swap3\n      swap2\n      pop\n      pop\n      jump\t// out\n        /* \"#utility.yul\":690:807   */\n    tag_43:\n        /* \"#utility.yul\":799:800   */\n      0x00\n        /* \"#utility.yul\":796:797   */\n      dup1\n        /* \"#utility.yul\":789:801   */\n      revert\n        /* \"#utility.yul\":813:930   */\n    tag_44:\n        /* \"#utility.yul\":922:923   */\n      0x00\n        /* \"#utility.yul\":919:920   */\n      dup1\n        /* \"#utility.yul\":912:924   */\n      revert\n        /* \"#utility.yul\":936:1038   */\n    tag_45:\n        /* \"#utility.yul\":977:983   */\n      0x00\n        /* \"#utility.yul\":1028:1030   */\n      0x1f\n        /* \"#utility.yul\":1024:1031   */\n      not\n        /* \"#utility.yul\":1019:1021   */\n      0x1f\n        /* \"#utility.yul\":1012:1017   */\n      dup4\n        /* \"#utility.yul\":1008:1022   */\n      add\n        /* \"#utility.yul\":1004:1032   */\n      and\n        /* \"#utility.yul\":994:1032   */\n      swap1\n      pop\n        /* \"#utility.yul\":936:1038   */\n      swap2\n      swap1\n      pop\n      jump\t// out\n        /* \"#utility.yul\":1044:1224   */\n    tag_46:\n        /* \"#utility.yul\":1092:1169   */\n      0x4e487b7100000000000000000000000000000000000000000000000000000000\n        /* \"#utility.yul\":1089:1090   */\n      0x00\n        /* \"#utility.yul\":1082:1170   */\n      mstore\n        /* \"#utility.yul\":1189:1193   */\n      0x41\n        /* \"#utility.yul\":1186:1187   */\n      0x04\n        /* \"#utility.yul\":1179:1194   */\n      mstore\n        /* \"#utility.yul\":1213:1217   */\n      0x24\n        /* \"#utility.yul\":1210:1211   */\n      0x00\n        /* \"#utility.yul\":1203:1218   */\n      revert\n        /* \"#utility.yul\":1230:1511   */\n    tag_47:\n        /* \"#utility.yul\":1313:1340   */\n      tag_89\n        /* \"#utility.yul\":1335:1339   */\n      dup3\n        /* \"#utility.yul\":1313:1340   */\n      tag_45\n      jump\t// in\n    tag_89:\n        /* \"#utility.yul\":1305:1311   */\n      dup2\n        /* \"#utility.yul\":1301:1341   */\n      add\n        /* \"#utility.yul\":1443:1449   */\n      dup2\n        /* \"#utility.yul\":1431:1441   */\n      dup2\n        /* \"#utility.yul\":1428:1450   */\n      lt\n        /* \"#utility.yul\":1407:1425   */\n      0xffffffffffffffff\n        /* \"#utility.yul\":1395:1405   */\n      dup3\n        /* \"#utility.yul\":1392:1426   */\n      gt\n        /* \"#utility.yul\":1389:1451   */\n      or\n        /* \"#utility.yul\":1386:1474   */\n      iszero\n      tag_90\n      jumpi\n        /* \"#utility.yul\":1454:1472   */\n      tag_91\n      tag_46\n      jump\t// in\n    tag_91:\n        /* \"#utility.yul\":1386:1474   */\n    tag_90:\n        /* \"#utility.yul\":1494:1504   */\n      dup1\n        /* \"#utility.yul\":1490:1492   */\n      0x40\n        /* \"#utility.yul\":1483:1505   */\n      mstore\n        /* \"#utility.yul\":1273:1511   */\n      pop\n        /* \"#utility.yul\":1230:1511   */\n      pop\n      pop\n      jump\t// out\n        /* \"#utility.yul\":1517:1646   */\n    tag_48:\n        /* \"#utility.yul\":1551:1557   */\n      0x00\n        /* \"#utility.yul\":1578:1598   */\n      tag_93\n      tag_37\n      jump\t// in\n    tag_93:\n        /* \"#utility.yul\":1568:1598   */\n      swap1\n      pop\n        /* \"#utility.yul\":1607:1640   */\n      tag_94\n        /* \"#utility.yul\":1635:1639   */\n      dup3\n        /* \"#utility.yul\":1627:1633   */\n      dup3\n        /* \"#utility.yul\":1607:1640   */\n      tag_47\n      jump\t// in\n    tag_94:\n        /* \"#utility.yul\":1517:1646   */\n      swap2\n      swap1\n      pop\n      jump\t// out\n        /* \"#utility.yul\":1652:1960   */\n    tag_49:\n        /* \"#utility.yul\":1714:1718   */\n      0x00\n        /* \"#utility.yul\":1804:1822   */\n      0xffffffffffffffff\n        /* \"#utility.yul\":1796:1802   */\n      dup3\n        /* \"#utility.yul\":1793:1823   */\n      gt\n        /* \"#utility.yul\":1790:1846   */\n      iszero\n      tag_96\n      jumpi\n        /* \"#utility.yul\":1826:1844   */\n      tag_97\n      tag_46\n      jump\t// in\n    tag_97:\n        /* \"#utility.yul\":1790:1846   */\n    tag_96:\n        /* \"#utility.yul\":1864:1893   */\n      tag_98\n        /* \"#utility.yul\":1886:1892   */\n      dup3\n        /* \"#utility.yul\":1864:1893   */\n      tag_45\n      jump\t// in\n    tag_98:\n        /* \"#utility.yul\":1856:1893   */\n      swap1\n      pop\n        /* \"#utility.yul\":1948:1952   */\n      0x20\n        /* \"#utility.yul\":1942:1946   */\n      dup2\n        /* \"#utility.yul\":1938:1953   */\n      add\n        /* \"#utility.yul\":1930:1953   */\n      swap1\n      pop\n        /* \"#utility.yul\":1652:1960   */\n      swap2\n      swap1\n      pop\n      jump\t// out\n        /* \"#utility.yul\":1966:2112   */\n    tag_50:\n        /* \"#utility.yul\":2063:2069   */\n      dup3\n        /* \"#utility.yul\":2058:2061   */\n      dup2\n        /* \"#utility.yul\":2053:2056   */\n      dup4\n        /* \"#utility.yul\":2040:2070   */\n      calldatacopy\n        /* \"#utility.yul\":2104:2105   */\n      0x00\n        /* \"#utility.yul\":2095:2101   */\n      dup4\n        /* \"#utility.yul\":2090:2093   */\n      dup4\n        /* \"#utility.yul\":2086:2102   */\n      add\n        /* \"#utility.yul\":2079:2106   */\n      mstore\n        /* \"#utility.yul\":1966:2112   */\n      pop\n      pop\n      pop\n      jump\t// out\n        /* \"#utility.yul\":2118:2543   */\n    tag_51:\n        /* \"#utility.yul\":2196:2201   */\n      0x00\n        /* \"#utility.yul\":2221:2287   */\n      tag_101\n        /* \"#utility.yul\":2237:2286   */\n      tag_102\n        /* \"#utility.yul\":2279:2285   */\n      dup5\n        /* \"#utility.yul\":2237:2286   */\n      tag_49\n      jump\t// in\n    tag_102:\n        /* \"#utility.yul\":2221:2287   */\n      tag_48\n      jump\t// in\n    tag_101:\n        /* \"#utility.yul\":2212:2287   */\n      swap1\n      pop\n        /* \"#utility.yul\":2310:2316   */\n      dup3\n        /* \"#utility.yul\":2303:2308   */\n      dup2\n        /* \"#utility.yul\":2296:2317   */\n      mstore\n        /* \"#utility.yul\":2348:2352   */\n      0x20\n        /* \"#utility.yul\":2341:2346   */\n      dup2\n        /* \"#utility.yul\":2337:2353   */\n      add\n        /* \"#utility.yul\":2386:2389   */\n      dup5\n        /* \"#utility.yul\":2377:2383   */\n      dup5\n        /* \"#utility.yul\":2372:2375   */\n      dup5\n        /* \"#utility.yul\":2368:2384   */\n      add\n        /* \"#utility.yul\":2365:2390   */\n      gt\n        /* \"#utility.yul\":2362:2474   */\n      iszero\n      tag_103\n      jumpi\n        /* \"#utility.yul\":2393:2472   */\n      tag_104\n      tag_44\n      jump\t// in\n    tag_104:\n        /* \"#utility.yul\":2362:2474   */\n    tag_103:\n        /* \"#utility.yul\":2483:2537   */\n      tag_105\n        /* \"#utility.yul\":2530:2536   */\n      dup5\n        /* \"#utility.yul\":2525:2528   */\n      dup3\n        /* \"#utility.yul\":2520:2523   */\n      dup6\n        /* \"#utility.yul\":2483:2537   */\n      tag_50\n      jump\t// in\n    tag_105:\n        /* \"#utility.yul\":2202:2543   */\n      pop\n        /* \"#utility.yul\":2118:2543   */\n      swap4\n      swap3\n      pop\n      pop\n      pop\n      jump\t// out\n        /* \"#utility.yul\":2563:2903   */\n    tag_52:\n        /* \"#utility.yul\":2619:2624   */\n      0x00\n        /* \"#utility.yul\":2668:2671   */\n      dup3\n        /* \"#utility.yul\":2661:2665   */\n      0x1f\n        /* \"#utility.yul\":2653:2659   */\n      dup4\n        /* \"#utility.yul\":2649:2666   */\n      add\n        /* \"#utility.yul\":2645:2672   */\n      slt\n        /* \"#utility.yul\":2635:2757   */\n      tag_107\n      jumpi\n        /* \"#utility.yul\":2676:2755   */\n      tag_108\n      tag_43\n      jump\t// in\n    tag_108:\n        /* \"#utility.yul\":2635:2757   */\n    tag_107:\n        /* \"#utility.yul\":2793:2799   */\n      dup2\n        /* \"#utility.yul\":2780:2800   */\n      calldataload\n        /* \"#utility.yul\":2818:2897   */\n      tag_109\n        /* \"#utility.yul\":2893:2896   */\n      dup5\n        /* \"#utility.yul\":2885:2891   */\n      dup3\n        /* \"#utility.yul\":2878:2882   */\n      0x20\n        /* \"#utility.yul\":2870:2876   */\n      dup7\n        /* \"#utility.yul\":2866:2883   */\n      add\n        /* \"#utility.yul\":2818:2897   */\n      tag_51\n      jump\t// in\n    tag_109:\n        /* \"#utility.yul\":2809:2897   */\n      swap2\n      pop\n        /* \"#utility.yul\":2625:2903   */\n      pop\n        /* \"#utility.yul\":2563:2903   */\n      swap3\n      swap2\n      pop\n      pop\n      jump\t// out\n        /* \"#utility.yul\":2909:4214   */\n    tag_7:\n        /* \"#utility.yul\":3025:3031   */\n      0x00\n        /* \"#utility.yul\":3033:3039   */\n      dup1\n        /* \"#utility.yul\":3041:3047   */\n      0x00\n        /* \"#utility.yul\":3049:3055   */\n      dup1\n        /* \"#utility.yul\":3098:3101   */\n      0x80\n        /* \"#utility.yul\":3086:3095   */\n      dup6\n        /* \"#utility.yul\":3077:3084   */\n      dup8\n        /* \"#utility.yul\":3073:3096   */\n      sub\n        /* \"#utility.yul\":3069:3102   */\n      slt\n        /* \"#utility.yul\":3066:3186   */\n      iszero\n      tag_111\n      jumpi\n        /* \"#utility.yul\":3105:3184   */\n      tag_112\n      tag_38\n      jump\t// in\n    tag_112:\n        /* \"#utility.yul\":3066:3186   */\n    tag_111:\n        /* \"#utility.yul\":3225:3226   */\n      0x00\n        /* \"#utility.yul\":3250:3303   */\n      tag_113\n        /* \"#utility.yul\":3295:3302   */\n      dup8\n        /* \"#utility.yul\":3286:3292   */\n      dup3\n        /* \"#utility.yul\":3275:3284   */\n      dup9\n        /* \"#utility.yul\":3271:3293   */\n      add\n        /* \"#utility.yul\":3250:3303   */\n      tag_42\n      jump\t// in\n    tag_113:\n        /* \"#utility.yul\":3240:3303   */\n      swap5\n      pop\n        /* \"#utility.yul\":3196:3313   */\n      pop\n        /* \"#utility.yul\":3380:3382   */\n      0x20\n        /* \"#utility.yul\":3369:3378   */\n      dup6\n        /* \"#utility.yul\":3365:3383   */\n      add\n        /* \"#utility.yul\":3352:3384   */\n      calldataload\n        /* \"#utility.yul\":3411:3429   */\n      0xffffffffffffffff\n        /* \"#utility.yul\":3403:3409   */\n      dup2\n        /* \"#utility.yul\":3400:3430   */\n      gt\n        /* \"#utility.yul\":3397:3514   */\n      iszero\n      tag_114\n      jumpi\n        /* \"#utility.yul\":3433:3512   */\n      tag_115\n      tag_39\n      jump\t// in\n    tag_115:\n        /* \"#utility.yul\":3397:3514   */\n    tag_114:\n        /* \"#utility.yul\":3538:3601   */\n      tag_116\n        /* \"#utility.yul\":3593:3600   */\n      dup8\n        /* \"#utility.yul\":3584:3590   */\n      dup3\n        /* \"#utility.yul\":3573:3582   */\n      dup9\n        /* \"#utility.yul\":3569:3591   */\n      add\n        /* \"#utility.yul\":3538:3601   */\n      tag_52\n      jump\t// in\n    tag_116:\n        /* \"#utility.yul\":3528:3601   */\n      swap4\n      pop\n        /* \"#utility.yul\":3323:3611   */\n      pop\n        /* \"#utility.yul\":3678:3680   */\n      0x40\n        /* \"#utility.yul\":3667:3676   */\n      dup6\n        /* \"#utility.yul\":3663:3681   */\n      add\n        /* \"#utility.yul\":3650:3682   */\n      calldataload\n        /* \"#utility.yul\":3709:3727   */\n      0xffffffffffffffff\n        /* \"#utility.yul\":3701:3707   */\n      dup2\n        /* \"#utility.yul\":3698:3728   */\n      gt\n        /* \"#utility.yul\":3695:3812   */\n      iszero\n      tag_117\n      jumpi\n        /* \"#utility.yul\":3731:3810   */\n      tag_118\n      tag_39\n      jump\t// in\n    tag_118:\n        /* \"#utility.yul\":3695:3812   */\n    tag_117:\n        /* \"#utility.yul\":3836:3899   */\n      tag_119\n        /* \"#utility.yul\":3891:3898   */\n      dup8\n        /* \"#utility.yul\":3882:3888   */\n      dup3\n        /* \"#utility.yul\":3871:3880   */\n      dup9\n        /* \"#utility.yul\":3867:3889   */\n      add\n        /* \"#utility.yul\":3836:3899   */\n      tag_52\n      jump\t// in\n    tag_119:\n        /* \"#utility.yul\":3826:3899   */\n      swap3\n      pop\n        /* \"#utility.yul\":3621:3909   */\n      pop\n        /* \"#utility.yul\":3976:3978   */\n      0x60\n        /* \"#utility.yul\":3965:3974   */\n      dup6\n        /* \"#utility.yul\":3961:3979   */\n      add\n        /* \"#utility.yul\":3948:3980   */\n      calldataload\n        /* \"#utility.yul\":4007:4025   */\n      0xffffffffffffffff\n        /* \"#utility.yul\":3999:4005   */\n      dup2\n        /* \"#utility.yul\":3996:4026   */\n      gt\n        /* \"#utility.yul\":3993:4110   */\n      iszero\n      tag_120\n      jumpi\n        /* \"#utility.yul\":4029:4108   */\n      tag_121\n      tag_39\n      jump\t// in\n    tag_121:\n        /* \"#utility.yul\":3993:4110   */\n    tag_120:\n        /* \"#utility.yul\":4134:4197   */\n      tag_122\n        /* \"#utility.yul\":4189:4196   */\n      dup8\n        /* \"#utility.yul\":4180:4186   */\n      dup3\n        /* \"#utility.yul\":4169:4178   */\n      dup9\n        /* \"#utility.yul\":4165:4187   */\n      add\n        /* \"#utility.yul\":4134:4197   */\n      tag_52\n      jump\t// in\n    tag_122:\n        /* \"#utility.yul\":4124:4197   */\n      swap2\n      pop\n        /* \"#utility.yul\":3919:4207   */\n      pop\n        /* \"#utility.yul\":2909:4214   */\n      swap3\n      swap6\n      swap2\n      swap5\n      pop\n      swap3\n      pop\n      jump\t// out\n        /* \"#utility.yul\":4220:4549   */\n    tag_11:\n        /* \"#utility.yul\":4279:4285   */\n      0x00\n        /* \"#utility.yul\":4328:4330   */\n      0x20\n        /* \"#utility.yul\":4316:4325   */\n      dup3\n        /* \"#utility.yul\":4307:4314   */\n      dup5\n        /* \"#utility.yul\":4303:4326   */\n      sub\n        /* \"#utility.yul\":4299:4331   */\n      slt\n        /* \"#utility.yul\":4296:4415   */\n      iszero\n      tag_124\n      jumpi\n        /* \"#utility.yul\":4334:4413   */\n      tag_125\n      tag_38\n      jump\t// in\n    tag_125:\n        /* \"#utility.yul\":4296:4415   */\n    tag_124:\n        /* \"#utility.yul\":4454:4455   */\n      0x00\n        /* \"#utility.yul\":4479:4532   */\n      tag_126\n        /* \"#utility.yul\":4524:4531   */\n      dup5\n        /* \"#utility.yul\":4515:4521   */\n      dup3\n        /* \"#utility.yul\":4504:4513   */\n      dup6\n        /* \"#utility.yul\":4500:4522   */\n      add\n        /* \"#utility.yul\":4479:4532   */\n      tag_42\n      jump\t// in\n    tag_126:\n        /* \"#utility.yul\":4469:4532   */\n      swap2\n      pop\n        /* \"#utility.yul\":4425:4542   */\n      pop\n        /* \"#utility.yul\":4220:4549   */\n      swap3\n      swap2\n      pop\n      pop\n      jump\t// out\n        /* \"#utility.yul\":4555:4673   */\n    tag_53:\n        /* \"#utility.yul\":4642:4666   */\n      tag_128\n        /* \"#utility.yul\":4660:4665   */\n      dup2\n        /* \"#utility.yul\":4642:4666   */\n      tag_40\n      jump\t// in\n    tag_128:\n        /* \"#utility.yul\":4637:4640   */\n      dup3\n        /* \"#utility.yul\":4630:4667   */\n      mstore\n        /* \"#utility.yul\":4555:4673   */\n      pop\n      pop\n      jump\t// out\n        /* \"#utility.yul\":4679:4778   */\n    tag_54:\n        /* \"#utility.yul\":4731:4737   */\n      0x00\n        /* \"#utility.yul\":4765:4770   */\n      dup2\n        /* \"#utility.yul\":4759:4771   */\n      mload\n        /* \"#utility.yul\":4749:4771   */\n      swap1\n      pop\n        /* \"#utility.yul\":4679:4778   */\n      swap2\n      swap1\n      pop\n      jump\t// out\n        /* \"#utility.yul\":4784:4953   */\n    tag_55:\n        /* \"#utility.yul\":4868:4879   */\n      0x00\n        /* \"#utility.yul\":4902:4908   */\n      dup3\n        /* \"#utility.yul\":4897:4900   */\n      dup3\n        /* \"#utility.yul\":4890:4909   */\n      mstore\n        /* \"#utility.yul\":4942:4946   */\n      0x20\n        /* \"#utility.yul\":4937:4940   */\n      dup3\n        /* \"#utility.yul\":4933:4947   */\n      add\n        /* \"#utility.yul\":4918:4947   */\n      swap1\n      pop\n        /* \"#utility.yul\":4784:4953   */\n      swap3\n      swap2\n      pop\n      pop\n      jump\t// out\n        /* \"#utility.yul\":4959:5205   */\n    tag_56:\n        /* \"#utility.yul\":5040:5041   */\n      0x00\n        /* \"#utility.yul\":5050:5163   */\n    tag_132:\n        /* \"#utility.yul\":5064:5070   */\n      dup4\n        /* \"#utility.yul\":5061:5062   */\n      dup2\n        /* \"#utility.yul\":5058:5071   */\n      lt\n        /* \"#utility.yul\":5050:5163   */\n      iszero\n      tag_134\n      jumpi\n        /* \"#utility.yul\":5149:5150   */\n      dup1\n        /* \"#utility.yul\":5144:5147   */\n      dup3\n        /* \"#utility.yul\":5140:5151   */\n      add\n        /* \"#utility.yul\":5134:5152   */\n      mload\n        /* \"#utility.yul\":5130:5131   */\n      dup2\n        /* \"#utility.yul\":5125:5128   */\n      dup5\n        /* \"#utility.yul\":5121:5132   */\n      add\n        /* \"#utility.yul\":5114:5153   */\n      mstore\n        /* \"#utility.yul\":5086:5088   */\n      0x20\n        /* \"#utility.yul\":5083:5084   */\n      dup2\n        /* \"#utility.yul\":5079:5089   */\n      add\n        /* \"#utility.yul\":5074:5089   */\n      swap1\n      pop\n        /* \"#utility.yul\":5050:5163   */\n      jump(tag_132)\n    tag_134:\n        /* \"#utility.yul\":5197:5198   */\n      0x00\n        /* \"#utility.yul\":5188:5194   */\n      dup5\n        /* \"#utility.yul\":5183:5186   */\n      dup5\n        /* \"#utility.yul\":5179:5195   */\n      add\n        /* \"#utility.yul\":5172:5199   */\n      mstore\n        /* \"#utility.yul\":5021:5205   */\n      pop\n        /* \"#utility.yul\":4959:5205   */\n      pop\n      pop\n      pop\n      jump\t// out\n        /* \"#utility.yul\":5211:5588   */\n    tag_57:\n        /* \"#utility.yul\":5299:5302   */\n      0x00\n        /* \"#utility.yul\":5327:5366   */\n      tag_136\n        /* \"#utility.yul\":5360:5365   */\n      dup3\n        /* \"#utility.yul\":5327:5366   */\n      tag_54\n      jump\t// in\n    tag_136:\n        /* \"#utility.yul\":5382:5453   */\n      tag_137\n        /* \"#utility.yul\":5446:5452   */\n      dup2\n        /* \"#utility.yul\":5441:5444   */\n      dup6\n        /* \"#utility.yul\":5382:5453   */\n      tag_55\n      jump\t// in\n    tag_137:\n        /* \"#utility.yul\":5375:5453   */\n      swap4\n      pop\n        /* \"#utility.yul\":5462:5527   */\n      tag_138\n        /* \"#utility.yul\":5520:5526   */\n      dup2\n        /* \"#utility.yul\":5515:5518   */\n      dup6\n        /* \"#utility.yul\":5508:5512   */\n      0x20\n        /* \"#utility.yul\":5501:5506   */\n      dup7\n        /* \"#utility.yul\":5497:5513   */\n      add\n        /* \"#utility.yul\":5462:5527   */\n      tag_56\n      jump\t// in\n    tag_138:\n        /* \"#utility.yul\":5552:5581   */\n      tag_139\n        /* \"#utility.yul\":5574:5580   */\n      dup2\n        /* \"#utility.yul\":5552:5581   */\n      tag_45\n      jump\t// in\n    tag_139:\n        /* \"#utility.yul\":5547:5550   */\n      dup5\n        /* \"#utility.yul\":5543:5582   */\n      add\n        /* \"#utility.yul\":5536:5582   */\n      swap2\n      pop\n        /* \"#utility.yul\":5303:5588   */\n      pop\n        /* \"#utility.yul\":5211:5588   */\n      swap3\n      swap2\n      pop\n      pop\n      jump\t// out\n        /* \"#utility.yul\":5594:6420   */\n    tag_14:\n        /* \"#utility.yul\":5831:5835   */\n      0x00\n        /* \"#utility.yul\":5869:5872   */\n      0x80\n        /* \"#utility.yul\":5858:5867   */\n      dup3\n        /* \"#utility.yul\":5854:5873   */\n      add\n        /* \"#utility.yul\":5846:5873   */\n      swap1\n      pop\n        /* \"#utility.yul\":5883:5954   */\n      tag_141\n        /* \"#utility.yul\":5951:5952   */\n      0x00\n        /* \"#utility.yul\":5940:5949   */\n      dup4\n        /* \"#utility.yul\":5936:5953   */\n      add\n        /* \"#utility.yul\":5927:5933   */\n      dup8\n        /* \"#utility.yul\":5883:5954   */\n      tag_53\n      jump\t// in\n    tag_141:\n        /* \"#utility.yul\":6001:6010   */\n      dup2\n        /* \"#utility.yul\":5995:5999   */\n      dup2\n        /* \"#utility.yul\":5991:6011   */\n      sub\n        /* \"#utility.yul\":5986:5988   */\n      0x20\n        /* \"#utility.yul\":5975:5984   */\n      dup4\n        /* \"#utility.yul\":5971:5989   */\n      add\n        /* \"#utility.yul\":5964:6012   */\n      mstore\n        /* \"#utility.yul\":6029:6107   */\n      tag_142\n        /* \"#utility.yul\":6102:6106   */\n      dup2\n        /* \"#utility.yul\":6093:6099   */\n      dup7\n        /* \"#utility.yul\":6029:6107   */\n      tag_57\n      jump\t// in\n    tag_142:\n        /* \"#utility.yul\":6021:6107   */\n      swap1\n      pop\n        /* \"#utility.yul\":6154:6163   */\n      dup2\n        /* \"#utility.yul\":6148:6152   */\n      dup2\n        /* \"#utility.yul\":6144:6164   */\n      sub\n        /* \"#utility.yul\":6139:6141   */\n      0x40\n        /* \"#utility.yul\":6128:6137   */\n      dup4\n        /* \"#utility.yul\":6124:6142   */\n      add\n        /* \"#utility.yul\":6117:6165   */\n      mstore\n        /* \"#utility.yul\":6182:6260   */\n      tag_143\n        /* \"#utility.yul\":6255:6259   */\n      dup2\n        /* \"#utility.yul\":6246:6252   */\n      dup6\n        /* \"#utility.yul\":6182:6260   */\n      tag_57\n      jump\t// in\n    tag_143:\n        /* \"#utility.yul\":6174:6260   */\n      swap1\n      pop\n        /* \"#utility.yul\":6307:6316   */\n      dup2\n        /* \"#utility.yul\":6301:6305   */\n      dup2\n        /* \"#utility.yul\":6297:6317   */\n      sub\n        /* \"#utility.yul\":6292:6294   */\n      0x60\n        /* \"#utility.yul\":6281:6290   */\n      dup4\n        /* \"#utility.yul\":6277:6295   */\n      add\n        /* \"#utility.yul\":6270:6318   */\n      mstore\n        /* \"#utility.yul\":6335:6413   */\n      tag_144\n        /* \"#utility.yul\":6408:6412   */\n      dup2\n        /* \"#utility.yul\":6399:6405   */\n      dup5\n        /* \"#utility.yul\":6335:6413   */\n      tag_57\n      jump\t// in\n    tag_144:\n        /* \"#utility.yul\":6327:6413   */\n      swap1\n      pop\n        /* \"#utility.yul\":5594:6420   */\n      swap6\n      swap5\n      pop\n      pop\n      pop\n      pop\n      pop\n      jump\t// out\n        /* \"#utility.yul\":6426:6606   */\n    tag_58:\n        /* \"#utility.yul\":6474:6551   */\n      0x4e487b7100000000000000000000000000000000000000000000000000000000\n        /* \"#utility.yul\":6471:6472   */\n      0x00\n        /* \"#utility.yul\":6464:6552   */\n      mstore\n        /* \"#utility.yul\":6571:6575   */\n      0x22\n        /* \"#utility.yul\":6568:6569   */\n      0x04\n        /* \"#utility.yul\":6561:6576   */\n      mstore\n        /* \"#utility.yul\":6595:6599   */\n      0x24\n        /* \"#utility.yul\":6592:6593   */\n      0x00\n        /* \"#utility.yul\":6585:6600   */\n      revert\n        /* \"#utility.yul\":6612:6932   */\n    tag_22:\n        /* \"#utility.yul\":6656:6662   */\n      0x00\n        /* \"#utility.yul\":6693:6694   */\n      0x02\n        /* \"#utility.yul\":6687:6691   */\n      dup3\n        /* \"#utility.yul\":6683:6695   */\n      div\n        /* \"#utility.yul\":6673:6695   */\n      swap1\n      pop\n        /* \"#utility.yul\":6740:6741   */\n      0x01\n        /* \"#utility.yul\":6734:6738   */\n      dup3\n        /* \"#utility.yul\":6730:6742   */\n      and\n        /* \"#utility.yul\":6761:6779   */\n      dup1\n        /* \"#utility.yul\":6751:6832   */\n      tag_147\n      jumpi\n        /* \"#utility.yul\":6817:6821   */\n      0x7f\n        /* \"#utility.yul\":6809:6815   */\n      dup3\n        /* \"#utility.yul\":6805:6822   */\n      and\n        /* \"#utility.yul\":6795:6822   */\n      swap2\n      pop\n        /* \"#utility.yul\":6751:6832   */\n    tag_147:\n        /* \"#utility.yul\":6879:6881   */\n      0x20\n        /* \"#utility.yul\":6871:6877   */\n      dup3\n        /* \"#utility.yul\":6868:6882   */\n      lt\n        /* \"#utility.yul\":6848:6866   */\n      dup2\n        /* \"#utility.yul\":6845:6883   */\n      sub\n        /* \"#utility.yul\":6842:6926   */\n      tag_148\n      jumpi\n        /* \"#utility.yul\":6898:6916   */\n      tag_149\n      tag_58\n      jump\t// in\n    tag_149:\n        /* \"#utility.yul\":6842:6926   */\n    tag_148:\n        /* \"#utility.yul\":6663:6932   */\n      pop\n        /* \"#utility.yul\":6612:6932   */\n      swap2\n      swap1\n      pop\n      jump\t// out\n        /* \"#utility.yul\":6938:7079   */\n    tag_59:\n        /* \"#utility.yul\":6987:6991   */\n      0x00\n        /* \"#utility.yul\":7010:7013   */\n      dup2\n        /* \"#utility.yul\":7002:7013   */\n      swap1\n      pop\n        /* \"#utility.yul\":7033:7036   */\n      dup2\n        /* \"#utility.yul\":7030:7031   */\n      0x00\n        /* \"#utility.yul\":7023:7037   */\n      mstore\n        /* \"#utility.yul\":7067:7071   */\n      0x20\n        /* \"#utility.yul\":7064:7065   */\n      0x00\n        /* \"#utility.yul\":7054:7072   */\n      keccak256\n        /* \"#utility.yul\":7046:7072   */\n      swap1\n      pop\n        /* \"#utility.yul\":6938:7079   */\n      swap2\n      swap1\n      pop\n      jump\t// out\n        /* \"#utility.yul\":7085:7178   */\n    tag_60:\n        /* \"#utility.yul\":7122:7128   */\n      0x00\n        /* \"#utility.yul\":7169:7171   */\n      0x20\n        /* \"#utility.yul\":7164:7166   */\n      0x1f\n        /* \"#utility.yul\":7157:7162   */\n      dup4\n        /* \"#utility.yul\":7153:7167   */\n      add\n        /* \"#utility.yul\":7149:7172   */\n      div\n        /* \"#utility.yul\":7139:7172   */\n      swap1\n      pop\n        /* \"#utility.yul\":7085:7178   */\n      swap2\n      swap1\n      pop\n      jump\t// out\n        /* \"#utility.yul\":7184:7291   */\n    tag_61:\n        /* \"#utility.yul\":7228:7236   */\n      0x00\n        /* \"#utility.yul\":7278:7283   */\n      dup3\n        /* \"#utility.yul\":7272:7276   */\n      dup3\n        /* \"#utility.yul\":7268:7284   */\n      shl\n        /* \"#utility.yul\":7247:7284   */\n      swap1\n      pop\n        /* \"#utility.yul\":7184:7291   */\n      swap3\n      swap2\n      pop\n      pop\n      jump\t// out\n        /* \"#utility.yul\":7297:7690   */\n    tag_62:\n        /* \"#utility.yul\":7366:7372   */\n      0x00\n        /* \"#utility.yul\":7416:7417   */\n      0x08\n        /* \"#utility.yul\":7404:7414   */\n      dup4\n        /* \"#utility.yul\":7400:7418   */\n      mul\n        /* \"#utility.yul\":7439:7536   */\n      tag_154\n        /* \"#utility.yul\":7469:7535   */\n      0xffffffffffffffffffffffffffffffffffffffffffffffffffffffffffffffff\n        /* \"#utility.yul\":7458:7467   */\n      dup3\n        /* \"#utility.yul\":7439:7536   */\n      tag_61\n      jump\t// in\n    tag_154:\n        /* \"#utility.yul\":7557:7596   */\n      tag_155\n        /* \"#utility.yul\":7587:7595   */\n      dup7\n        /* \"#utility.yul\":7576:7585   */\n      dup4\n        /* \"#utility.yul\":7557:7596   */\n      tag_61\n      jump\t// in\n    tag_155:\n        /* \"#utility.yul\":7545:7596   */\n      swap6\n      pop\n        /* \"#utility.yul\":7629:7633   */\n      dup1\n        /* \"#utility.yul\":7625:7634   */\n      not\n        /* \"#utility.yul\":7618:7623   */\n      dup5\n        /* \"#utility.yul\":7614:7635   */\n      and\n        /* \"#utility.yul\":7605:7635   */\n      swap4\n      pop\n        /* \"#utility.yul\":7678:7682   */\n      dup1\n        /* \"#utility.yul\":7668:7676   */\n      dup7\n        /* \"#utility.yul\":7664:7683   */\n      and\n        /* \"#utility.yul\":7657:7662   */\n      dup5\n        /* \"#utility.yul\":7654:7684   */\n      or\n        /* \"#utility.yul\":7644:7684   */\n      swap3\n      pop\n        /* \"#utility.yul\":7373:7690   */\n      pop\n      pop\n        /* \"#utility.yul\":7297:7690   */\n      swap4\n      swap3\n      pop\n      pop\n      pop\n      jump\t// out\n        /* \"#utility.yul\":7696:7756   */\n    tag_63:\n        /* \"#utility.yul\":7724:7727   */\n      0x00\n        /* \"#utility.yul\":7745:7750   */\n      dup2\n        /* \"#utility.yul\":7738:7750   */\n      swap1\n      pop\n        /* \"#utility.yul\":7696:7756   */\n      swap2\n      swap1\n      pop\n      jump\t// out\n        /* \"#utility.yul\":7762:7904   */\n    tag_64:\n        /* \"#utility.yul\":7812:7821   */\n      0x00\n        /* \"#utility.yul\":7845:7898   */\n      tag_158\n        /* \"#utility.yul\":7863:7897   */\n      tag_159\n        /* \"#utility.yul\":7872:7896   */\n      tag_160\n        /* \"#utility.yul\":7890:7895   */\n      dup5\n        /* \"#utility.yul\":7872:7896   */\n      tag_40\n      jump\t// in\n    tag_160:\n        /* \"#utility.yul\":7863:7897   */\n      tag_63\n      jump\t// in\n    tag_159:\n        /* \"#utility.yul\":7845:7898   */\n      tag_40\n      jump\t// in\n    tag_158:\n        /* \"#utility.yul\":7832:7898   */\n      swap1\n      pop\n        /* \"#utility.yul\":7762:7904   */\n      swap2\n      swap1\n      pop\n      jump\t// out\n        /* \"#utility.yul\":7910:7985   */\n    tag_65:\n        /* \"#utility.yul\":7953:7956   */\n      0x00\n        /* \"#utility.yul\":7974:7979   */\n      dup2\n        /* \"#utility.yul\":7967:7979   */\n      swap1\n      pop\n        /* \"#utility.yul\":7910:7985   */\n      swap2\n      swap1\n      pop\n      jump\t// out\n        /* \"#utility.yul\":7991:8260   */\n    tag_66:\n        /* \"#utility.yul\":8101:8140   */\n      tag_163\n        /* \"#utility.yul\":8132:8139   */\n      dup4\n        /* \"#utility.yul\":8101:8140   */\n      tag_64\n      jump\t// in\n    tag_163:\n        /* \"#utility.yul\":8162:8253   */\n      tag_164\n        /* \"#utility.yul\":8211:8252   */\n      tag_165\n        /* \"#utility.yul\":8235:8251   */\n      dup3\n        /* \"#utility.yul\":8211:8252   */\n      tag_65\n      jump\t// in\n    tag_165:\n        /* \"#utility.yul\":8203:8209   */\n      dup5\n        /* \"#utility.yul\":8196:8200   */\n      dup5\n        /* \"#utility.yul\":8190:8201   */\n      sload\n        /* \"#utility.yul\":8162:8253   */\n      tag_62\n      jump\t// in\n    tag_164:\n        /* \"#utility.yul\":8156:8160   */\n      dup3\n        /* \"#utility.yul\":8149:8254   */\n      sstore\n        /* \"#utility.yul\":8067:8260   */\n      pop\n        /* \"#utility.yul\":7991:8260   */\n      pop\n      pop\n      pop\n      jump\t// out\n        /* \"#utility.yul\":8266:8339   */\n    tag_67:\n        /* \"#utility.yul\":8311:8314   */\n      0x00\n        /* \"#utility.yul\":8266:8339   */\n      swap1\n      jump\t// out\n        /* \"#utility.yul\":8345:8534   */\n    tag_68:\n        /* \"#utility.yul\":8422:8454   */\n      tag_168\n      tag_67\n      jump\t// in\n    tag_168:\n        /* \"#utility.yul\":8463:8528   */\n      tag_169\n        /* \"#utility.yul\":8521:8527   */\n      dup2\n        /* \"#utility.yul\":8513:8519   */\n      dup5\n        /* \"#utility.yul\":8507:8511   */\n      dup5\n        /* \"#utility.yul\":8463:8528   */\n      tag_66\n      jump\t// in\n    tag_169:\n        /* \"#utility.yul\":8398:8534   */\n      pop\n        /* \"#utility.yul\":8345:8534   */\n      pop\n      pop\n      jump\t// out\n        /* \"#utility.yul\":8540:8726   */\n    tag_69:\n        /* \"#utility.yul\":8600:8720   */\n    tag_171:\n        /* \"#utility.yul\":8617:8620   */\n      dup2\n        /* \"#utility.yul\":8610:8615   */\n      dup2\n        /* \"#utility.yul\":8607:8621   */\n      lt\n        /* \"#utility.yul\":8600:8720   */\n      iszero\n      tag_173\n      jumpi\n        /* \"#utility.yul\":8671:8710   */\n      tag_174\n        /* \"#utility.yul\":8708:8709   */\n      0x00\n        /* \"#utility.yul\":8701:8706   */\n      dup3\n        /* \"#utility.yul\":8671:8710   */\n      tag_68\n      jump\t// in\n    tag_174:\n        /* \"#utility.yul\":8644:8645   */\n      0x01\n        /* \"#utility.yul\":8637:8642   */\n      dup2\n        /* \"#utility.yul\":8633:8646   */\n      add\n        /* \"#utility.yul\":8624:8646   */\n      swap1\n      pop\n        /* \"#utility.yul\":8600:8720   */\n      jump(tag_171)\n    tag_173:\n        /* \"#utility.yul\":8540:8726   */\n      pop\n      pop\n      jump\t// out\n        /* \"#utility.yul\":8732:9275   */\n    tag_70:\n        /* \"#utility.yul\":8833:8835   */\n      0x1f\n        /* \"#utility.yul\":8828:8831   */\n      dup3\n        /* \"#utility.yul\":8825:8836   */\n      gt\n        /* \"#utility.yul\":8822:9268   */\n      iszero\n      tag_176\n      jumpi\n        /* \"#utility.yul\":8867:8905   */\n      tag_177\n        /* \"#utility.yul\":8899:8904   */\n      dup2\n        /* \"#utility.yul\":8867:8905   */\n      tag_59\n      jump\t// in\n    tag_177:\n        /* \"#utility.yul\":8951:8980   */\n      tag_178\n        /* \"#utility.yul\":8969:8979   */\n      dup5\n        /* \"#utility.yul\":8951:8980   */\n      tag_60\n      jump\t// in\n    tag_178:\n        /* \"#utility.yul\":8941:8949   */\n      dup2\n        /* \"#utility.yul\":8937:8981   */\n      add\n        /* \"#utility.yul\":9134:9136   */\n      0x20\n        /* \"#utility.yul\":9122:9132   */\n      dup6\n        /* \"#utility.yul\":9119:9137   */\n      lt\n        /* \"#utility.yul\":9116:9165   */\n      iszero\n      tag_179\n      jumpi\n        /* \"#utility.yul\":9155:9163   */\n      dup2\n        /* \"#utility.yul\":9140:9163   */\n      swap1\n      pop\n        /* \"#utility.yul\":9116:9165   */\n    tag_179:\n        /* \"#utility.yul\":9178:9258   */\n      tag_180\n        /* \"#utility.yul\":9234:9256   */\n      tag_181\n        /* \"#utility.yul\":9252:9255   */\n      dup6\n        /* \"#utility.yul\":9234:9256   */\n      tag_60\n      jump\t// in\n    tag_181:\n        /* \"#utility.yul\":9224:9232   */\n      dup4\n        /* \"#utility.yul\":9220:9257   */\n      add\n        /* \"#utility.yul\":9207:9218   */\n      dup3\n        /* \"#utility.yul\":9178:9258   */\n      tag_69\n      jump\t// in\n    tag_180:\n        /* \"#utility.yul\":8837:9268   */\n      pop\n      pop\n        /* \"#utility.yul\":8822:9268   */\n    tag_176:\n        /* \"#utility.yul\":8732:9275   */\n      pop\n      pop\n      pop\n      jump\t// out\n        /* \"#utility.yul\":9281:9398   */\n    tag_71:\n        /* \"#utility.yul\":9335:9343   */\n      0x00\n        /* \"#utility.yul\":9385:9390   */\n      dup3\n        /* \"#utility.yul\":9379:9383   */\n      dup3\n        /* \"#utility.yul\":9375:9391   */\n      shr\n        /* \"#utility.yul\":9354:9391   */\n      swap1\n      pop\n        /* \"#utility.yul\":9281:9398   */\n      swap3\n      swap2\n      pop\n      pop\n      jump\t// out\n        /* \"#utility.yul\":9404:9573   */\n    tag_72:\n        /* \"#utility.yul\":9448:9454   */\n      0x00\n        /* \"#utility.yul\":9481:9532   */\n      tag_184\n        /* \"#utility.yul\":9529:9530   */\n      0x00\n        /* \"#utility.yul\":9525:9531   */\n      not\n        /* \"#utility.yul\":9517:9522   */\n      dup5\n        /* \"#utility.yul\":9514:9515   */\n      0x08\n        /* \"#utility.yul\":9510:9523   */\n      mul\n        /* \"#utility.yul\":9481:9532   */\n      tag_71\n      jump\t// in\n    tag_184:\n        /* \"#utility.yul\":9477:9533   */\n      not\n        /* \"#utility.yul\":9562:9566   */\n      dup1\n        /* \"#utility.yul\":9556:9560   */\n      dup4\n        /* \"#utility.yul\":9552:9567   */\n      and\n        /* \"#utility.yul\":9542:9567   */\n      swap2\n      pop\n        /* \"#utility.yul\":9455:9573   */\n      pop\n        /* \"#utility.yul\":9404:9573   */\n      swap3\n      swap2\n      pop\n      pop\n      jump\t// out\n        /* \"#utility.yul\":9578:9873   */\n    tag_73:\n        /* \"#utility.yul\":9654:9658   */\n      0x00\n        /* \"#utility.yul\":9800:9829   */\n      tag_186\n        /* \"#utility.yul\":9825:9828   */\n      dup4\n        /* \"#utility.yul\":9819:9823   */\n      dup4\n        /* \"#utility.yul\":9800:9829   */\n      tag_72\n      jump\t// in\n    tag_186:\n        /* \"#utility.yul\":9792:9829   */\n      swap2\n      pop\n        /* \"#utility.yul\":9862:9865   */\n      dup3\n        /* \"#utility.yul\":9859:9860   */\n      0x02\n        /* \"#utility.yul\":9855:9866   */\n      mul\n        /* \"#utility.yul\":9849:9853   */\n      dup3\n        /* \"#utility.yul\":9846:9867   */\n      or\n        /* \"#utility.yul\":9838:9867   */\n      swap1\n      pop\n        /* \"#utility.yul\":9578:9873   */\n      swap3\n      swap2\n      pop\n      pop\n      jump\t// out\n        /* \"#utility.yul\":9878:11273   */\n    tag_17:\n        /* \"#utility.yul\":9995:10032   */\n      tag_188\n        /* \"#utility.yul\":10028:10031   */\n      dup3\n        /* \"#utility.yul\":9995:10032   */\n      tag_54\n      jump\t// in\n    tag_188:\n        /* \"#utility.yul\":10097:10115   */\n      0xffffffffffffffff\n        /* \"#utility.yul\":10089:10095   */\n      dup2\n        /* \"#utility.yul\":10086:10116   */\n      gt\n        /* \"#utility.yul\":10083:10139   */\n      iszero\n      tag_189\n      jumpi\n        /* \"#utility.yul\":10119:10137   */\n      tag_190\n      tag_46\n      jump\t// in\n    tag_190:\n        /* \"#utility.yul\":10083:10139   */\n    tag_189:\n        /* \"#utility.yul\":10163:10201   */\n      tag_191\n        /* \"#utility.yul\":10195:10199   */\n      dup3\n        /* \"#utility.yul\":10189:10200   */\n      sload\n        /* \"#utility.yul\":10163:10201   */\n      tag_22\n      jump\t// in\n    tag_191:\n        /* \"#utility.yul\":10248:10315   */\n      tag_192\n        /* \"#utility.yul\":10308:10314   */\n      dup3\n        /* \"#utility.yul\":10300:10306   */\n      dup3\n        /* \"#utility.yul\":10294:10298   */\n      dup6\n        /* \"#utility.yul\":10248:10315   */\n      tag_70\n      jump\t// in\n    tag_192:\n        /* \"#utility.yul\":10342:10343   */\n      0x00\n        /* \"#utility.yul\":10366:10370   */\n      0x20\n        /* \"#utility.yul\":10353:10370   */\n      swap1\n      pop\n        /* \"#utility.yul\":10398:10400   */\n      0x1f\n        /* \"#utility.yul\":10390:10396   */\n      dup4\n        /* \"#utility.yul\":10387:10401   */\n      gt\n        /* \"#utility.yul\":10415:10416   */\n      0x01\n        /* \"#utility.yul\":10410:11028   */\n      dup2\n      eq\n      tag_194\n      jumpi\n        /* \"#utility.yul\":11072:11073   */\n      0x00\n        /* \"#utility.yul\":11089:11095   */\n      dup5\n        /* \"#utility.yul\":11086:11163   */\n      iszero\n      tag_195\n      jumpi\n        /* \"#utility.yul\":11138:11147   */\n      dup3\n        /* \"#utility.yul\":11133:11136   */\n      dup8\n        /* \"#utility.yul\":11129:11148   */\n      add\n        /* \"#utility.yul\":11123:11149   */\n      mload\n        /* \"#utility.yul\":11114:11149   */\n      swap1\n      pop\n        /* \"#utility.yul\":11086:11163   */\n    tag_195:\n        /* \"#utility.yul\":11189:11256   */\n      tag_196\n        /* \"#utility.yul\":11249:11255   */\n      dup6\n        /* \"#utility.yul\":11242:11247   */\n      dup3\n        /* \"#utility.yul\":11189:11256   */\n      tag_73\n      jump\t// in\n    tag_196:\n        /* \"#utility.yul\":11183:11187   */\n      dup7\n        /* \"#utility.yul\":11176:11257   */\n      sstore\n        /* \"#utility.yul\":11045:11267   */\n      pop\n        /* \"#utility.yul\":10380:11267   */\n      jump(tag_193)\n        /* \"#utility.yul\":10410:11028   */\n    tag_194:\n        /* \"#utility.yul\":10462:10466   */\n      0x1f\n        /* \"#utility.yul\":10458:10467   */\n      not\n        /* \"#utility.yul\":10450:10456   */\n      dup5\n        /* \"#utility.yul\":10446:10468   */\n      and\n        /* \"#utility.yul\":10496:10533   */\n      tag_197\n        /* \"#utility.yul\":10528:10532   */\n      dup7\n        /* \"#utility.yul\":10496:10533   */\n      tag_59\n      jump\t// in\n    tag_197:\n        /* \"#utility.yul\":10555:10556   */\n      0x00\n        /* \"#utility.yul\":10569:10777   */\n    tag_198:\n        /* \"#utility.yul\":10583:10590   */\n      dup3\n        /* \"#utility.yul\":10580:10581   */\n      dup2\n        /* \"#utility.yul\":10577:10591   */\n      lt\n        /* \"#utility.yul\":10569:10777   */\n      iszero\n      tag_200\n      jumpi\n        /* \"#utility.yul\":10662:10671   */\n      dup5\n        /* \"#utility.yul\":10657:10660   */\n      dup10\n        /* \"#utility.yul\":10653:10672   */\n      add\n        /* \"#utility.yul\":10647:10673   */\n      mload\n        /* \"#utility.yul\":10639:10645   */\n      dup3\n        /* \"#utility.yul\":10632:10674   */\n      sstore\n        /* \"#utility.yul\":10713:10714   */\n      0x01\n        /* \"#utility.yul\":10705:10711   */\n      dup3\n        /* \"#utility.yul\":10701:10715   */\n      add\n        /* \"#utility.yul\":10691:10715   */\n      swap2\n      pop\n        /* \"#utility.yul\":10760:10762   */\n      0x20\n        /* \"#utility.yul\":10749:10758   */\n      dup6\n        /* \"#utility.yul\":10745:10763   */\n      add\n        /* \"#utility.yul\":10732:10763   */\n      swap5\n      pop\n        /* \"#utility.yul\":10606:10610   */\n      0x20\n        /* \"#utility.yul\":10603:10604   */\n      dup2\n        /* \"#utility.yul\":10599:10611   */\n      add\n        /* \"#utility.yul\":10594:10611   */\n      swap1\n      pop\n        /* \"#utility.yul\":10569:10777   */\n      jump(tag_198)\n    tag_200:\n        /* \"#utility.yul\":10805:10811   */\n      dup7\n        /* \"#utility.yul\":10796:10803   */\n      dup4\n        /* \"#utility.yul\":10793:10812   */\n      lt\n        /* \"#utility.yul\":10790:10969   */\n      iszero\n      tag_201\n      jumpi\n        /* \"#utility.yul\":10863:10872   */\n      dup5\n        /* \"#utility.yul\":10858:10861   */\n      dup10\n        /* \"#utility.yul\":10854:10873   */\n      add\n        /* \"#utility.yul\":10848:10874   */\n      mload\n        /* \"#utility.yul\":10906:10954   */\n      tag_202\n        /* \"#utility.yul\":10948:10952   */\n      0x1f\n        /* \"#utility.yul\":10940:10946   */\n      dup10\n        /* \"#utility.yul\":10936:10953   */\n      and\n        /* \"#utility.yul\":10925:10934   */\n      dup3\n        /* \"#utility.yul\":10906:10954   */\n      tag_72\n      jump\t// in\n    tag_202:\n        /* \"#utility.yul\":10898:10904   */\n      dup4\n        /* \"#utility.yul\":10891:10955   */\n      sstore\n        /* \"#utility.yul\":10813:10969   */\n      pop\n        /* \"#utility.yul\":10790:10969   */\n    tag_201:\n        /* \"#utility.yul\":11015:11016   */\n      0x01\n        /* \"#utility.yul\":11011:11012   */\n      0x02\n        /* \"#utility.yul\":11003:11009   */\n      dup9\n        /* \"#utility.yul\":10999:11013   */\n      mul\n        /* \"#utility.yul\":10995:11017   */\n      add\n        /* \"#utility.yul\":10989:10993   */\n      dup9\n        /* \"#utility.yul\":10982:11018   */\n      sstore\n        /* \"#utility.yul\":10417:11028   */\n      pop\n      pop\n      pop\n        /* \"#utility.yul\":10380:11267   */\n    tag_193:\n      pop\n        /* \"#utility.yul\":9970:11273   */\n      pop\n      pop\n      pop\n        /* \"#utility.yul\":9878:11273   */\n      pop\n      pop\n      jump\t// out\n\n    auxdata: 0xa2646970667358221220e04e1c93d895758b6489694cf33aab6e589f2e621a467b5736f9da044d9caa0464736f6c63430008160033\n}\n",
				"bytecode": {
					"linkReferences": {},
					"object": "608060405234801561000f575f80fd5b506108d18061001d5f395ff3fe608060405234801561000f575f80fd5b5060043610610034575f3560e01c806309f9f9ae146100385780632403d2e314610054575b5f80fd5b610052600480360381019061004d919061040e565b610087565b005b61006e600480360381019061006991906104c6565b6100cb565b60405161007e949392919061057a565b60405180910390f35b835f800181905550825f60010190816100a091906107cc565b50815f60020190816100b291906107cc565b50805f60030190816100c491906107cc565b5050505050565b5f60608060605f8001545f6001015f6002015f6003018280546100ed906105ff565b80601f0160208091040260200160405190810160405280929190818152602001828054610119906105ff565b80156101645780601f1061013b57610100808354040283529160200191610164565b820191905f5260205f20905b81548152906001019060200180831161014757829003601f168201915b50505050509250818054610177906105ff565b80601f01602080910402602001604051908101604052809291908181526020018280546101a3906105ff565b80156101ee5780601f106101c5576101008083540402835291602001916101ee565b820191905f5260205f20905b8154815290600101906020018083116101d157829003601f168201915b50505050509150808054610201906105ff565b80601f016020809104026020016040519081016040528092919081815260200182805461022d906105ff565b80156102785780601f1061024f57610100808354040283529160200191610278565b820191905f5260205f20905b81548152906001019060200180831161025b57829003601f168201915b5050505050905093509350935093509193509193565b5f604051905090565b5f80fd5b5f80fd5b5f819050919050565b6102b18161029f565b81146102bb575f80fd5b50565b5f813590506102cc816102a8565b92915050565b5f80fd5b5f80fd5b5f601f19601f8301169050919050565b7f4e487b71000000000000000000000000000000000000000000000000000000005f52604160045260245ffd5b610320826102da565b810181811067ffffffffffffffff8211171561033f5761033e6102ea565b5b80604052505050565b5f61035161028e565b905061035d8282610317565b919050565b5f67ffffffffffffffff82111561037c5761037b6102ea565b5b610385826102da565b9050602081019050919050565b828183375f83830152505050565b5f6103b26103ad84610362565b610348565b9050828152602081018484840111156103ce576103cd6102d6565b5b6103d9848285610392565b509392505050565b5f82601f8301126103f5576103f46102d2565b5b81356104058482602086016103a0565b91505092915050565b5f805f806080858703121561042657610425610297565b5b5f610433878288016102be565b945050602085013567ffffffffffffffff8111156104545761045361029b565b5b610460878288016103e1565b935050604085013567ffffffffffffffff8111156104815761048061029b565b5b61048d878288016103e1565b925050606085013567ffffffffffffffff8111156104ae576104ad61029b565b5b6104ba878288016103e1565b91505092959194509250565b5f602082840312156104db576104da610297565b5b5f6104e8848285016102be565b91505092915050565b6104fa8161029f565b82525050565b5f81519050919050565b5f82825260208201905092915050565b5f5b8381101561053757808201518184015260208101905061051c565b5f8484015250505050565b5f61054c82610500565b610556818561050a565b935061056681856020860161051a565b61056f816102da565b840191505092915050565b5f60808201905061058d5f8301876104f1565b818103602083015261059f8186610542565b905081810360408301526105b38185610542565b905081810360608301526105c78184610542565b905095945050505050565b7f4e487b71000000000000000000000000000000000000000000000000000000005f52602260045260245ffd5b5f600282049050600182168061061657607f821691505b602082108103610629576106286105d2565b5b50919050565b5f819050815f5260205f209050919050565b5f6020601f8301049050919050565b5f82821b905092915050565b5f6008830261068b7fffffffffffffffffffffffffffffffffffffffffffffffffffffffffffffffff82610650565b6106958683610650565b95508019841693508086168417925050509392505050565b5f819050919050565b5f6106d06106cb6106c68461029f565b6106ad565b61029f565b9050919050565b5f819050919050565b6106e9836106b6565b6106fd6106f5826106d7565b84845461065c565b825550505050565b5f90565b610711610705565b61071c8184846106e0565b505050565b5b8181101561073f576107345f82610709565b600181019050610722565b5050565b601f821115610784576107558161062f565b61075e84610641565b8101602085101561076d578190505b61078161077985610641565b830182610721565b50505b505050565b5f82821c905092915050565b5f6107a45f1984600802610789565b1980831691505092915050565b5f6107bc8383610795565b9150826002028217905092915050565b6107d582610500565b67ffffffffffffffff8111156107ee576107ed6102ea565b5b6107f882546105ff565b610803828285610743565b5f60209050601f831160018114610834575f8415610822578287015190505b61082c85826107b1565b865550610893565b601f1984166108428661062f565b5f5b8281101561086957848901518255600182019150602085019450602081019050610844565b868310156108865784890151610882601f891682610795565b8355505b6001600288020188555050505b50505050505056fea2646970667358221220e04e1c93d895758b6489694cf33aab6e589f2e621a467b5736f9da044d9caa0464736f6c63430008160033",
					"opcodes": "PUSH1 0x80 PUSH1 0x40 MSTORE CALLVALUE DUP1 ISZERO PUSH2 0xF JUMPI PUSH0 DUP1 REVERT JUMPDEST POP PUSH2 0x8D1 DUP1 PUSH2 0x1D PUSH0 CODECOPY PUSH0 RETURN INVALID PUSH1 0x80 PUSH1 0x40 MSTORE CALLVALUE DUP1 ISZERO PUSH2 0xF JUMPI PUSH0 DUP1 REVERT JUMPDEST POP PUSH1 0x4 CALLDATASIZE LT PUSH2 0x34 JUMPI PUSH0 CALLDATALOAD PUSH1 0xE0 SHR DUP1 PUSH4 0x9F9F9AE EQ PUSH2 0x38 JUMPI DUP1 PUSH4 0x2403D2E3 EQ PUSH2 0x54 JUMPI JUMPDEST PUSH0 DUP1 REVERT JUMPDEST PUSH2 0x52 PUSH1 0x4 DUP1 CALLDATASIZE SUB DUP2 ADD SWAP1 PUSH2 0x4D SWAP2 SWAP1 PUSH2 0x40E JUMP JUMPDEST PUSH2 0x87 JUMP JUMPDEST STOP JUMPDEST PUSH2 0x6E PUSH1 0x4 DUP1 CALLDATASIZE SUB DUP2 ADD SWAP1 PUSH2 0x69 SWAP2 SWAP1 PUSH2 0x4C6 JUMP JUMPDEST PUSH2 0xCB JUMP JUMPDEST PUSH1 0x40 MLOAD PUSH2 0x7E SWAP5 SWAP4 SWAP3 SWAP2 SWAP1 PUSH2 0x57A JUMP JUMPDEST PUSH1 0x40 MLOAD DUP1 SWAP2 SUB SWAP1 RETURN JUMPDEST DUP4 PUSH0 DUP1 ADD DUP2 SWAP1 SSTORE POP DUP3 PUSH0 PUSH1 0x1 ADD SWAP1 DUP2 PUSH2 0xA0 SWAP2 SWAP1 PUSH2 0x7CC JUMP JUMPDEST POP DUP2 PUSH0 PUSH1 0x2 ADD SWAP1 DUP2 PUSH2 0xB2 SWAP2 SWAP1 PUSH2 0x7CC JUMP JUMPDEST POP DUP1 PUSH0 PUSH1 0x3 ADD SWAP1 DUP2 PUSH2 0xC4 SWAP2 SWAP1 PUSH2 0x7CC JUMP JUMPDEST POP POP POP POP POP JUMP JUMPDEST PUSH0 PUSH1 0x60 DUP1 PUSH1 0x60 PUSH0 DUP1 ADD SLOAD PUSH0 PUSH1 0x1 ADD PUSH0 PUSH1 0x2 ADD PUSH0 PUSH1 0x3 ADD DUP3 DUP1 SLOAD PUSH2 0xED SWAP1 PUSH2 0x5FF JUMP JUMPDEST DUP1 PUSH1 0x1F ADD PUSH1 0x20 DUP1 SWAP2 DIV MUL PUSH1 0x20 ADD PUSH1 0x40 MLOAD SWAP1 DUP2 ADD PUSH1 0x40 MSTORE DUP1 SWAP3 SWAP2 SWAP1 DUP2 DUP2 MSTORE PUSH1 0x20 ADD DUP3 DUP1 SLOAD PUSH2 0x119 SWAP1 PUSH2 0x5FF JUMP JUMPDEST DUP1 ISZERO PUSH2 0x164 JUMPI DUP1 PUSH1 0x1F LT PUSH2 0x13B JUMPI PUSH2 0x100 DUP1 DUP4 SLOAD DIV MUL DUP4 MSTORE SWAP2 PUSH1 0x20 ADD SWAP2 PUSH2 0x164 JUMP JUMPDEST DUP3 ADD SWAP2 SWAP1 PUSH0 MSTORE PUSH1 0x20 PUSH0 KECCAK256 SWAP1 JUMPDEST DUP2 SLOAD DUP2 MSTORE SWAP1 PUSH1 0x1 ADD SWAP1 PUSH1 0x20 ADD DUP1 DUP4 GT PUSH2 0x147 JUMPI DUP3 SWAP1 SUB PUSH1 0x1F AND DUP3 ADD SWAP2 JUMPDEST POP POP POP POP POP SWAP3 POP DUP2 DUP1 SLOAD PUSH2 0x177 SWAP1 PUSH2 0x5FF JUMP JUMPDEST DUP1 PUSH1 0x1F ADD PUSH1 0x20 DUP1 SWAP2 DIV MUL PUSH1 0x20 ADD PUSH1 0x40 MLOAD SWAP1 DUP2 ADD PUSH1 0x40 MSTORE DUP1 SWAP3 SWAP2 SWAP1 DUP2 DUP2 MSTORE PUSH1 0x20 ADD DUP3 DUP1 SLOAD PUSH2 0x1A3 SWAP1 PUSH2 0x5FF JUMP JUMPDEST DUP1 ISZERO PUSH2 0x1EE JUMPI DUP1 PUSH1 0x1F LT PUSH2 0x1C5 JUMPI PUSH2 0x100 DUP1 DUP4 SLOAD DIV MUL DUP4 MSTORE SWAP2 PUSH1 0x20 ADD SWAP2 PUSH2 0x1EE JUMP JUMPDEST DUP3 ADD SWAP2 SWAP1 PUSH0 MSTORE PUSH1 0x20 PUSH0 KECCAK256 SWAP1 JUMPDEST DUP2 SLOAD DUP2 MSTORE SWAP1 PUSH1 0x1 ADD SWAP1 PUSH1 0x20 ADD DUP1 DUP4 GT PUSH2 0x1D1 JUMPI DUP3 SWAP1 SUB PUSH1 0x1F AND DUP3 ADD SWAP2 JUMPDEST POP POP POP POP POP SWAP2 POP DUP1 DUP1 SLOAD PUSH2 0x201 SWAP1 PUSH2 0x5FF JUMP JUMPDEST DUP1 PUSH1 0x1F ADD PUSH1 0x20 DUP1 SWAP2 DIV MUL PUSH1 0x20 ADD PUSH1 0x40 MLOAD SWAP1 DUP2 ADD PUSH1 0x40 MSTORE DUP1 SWAP3 SWAP2 SWAP1 DUP2 DUP2 MSTORE PUSH1 0x20 ADD DUP3 DUP1 SLOAD PUSH2 0x22D SWAP1 PUSH2 0x5FF JUMP JUMPDEST DUP1 ISZERO PUSH2 0x278 JUMPI DUP1 PUSH1 0x1F LT PUSH2 0x24F JUMPI PUSH2 0x100 DUP1 DUP4 SLOAD DIV MUL DUP4 MSTORE SWAP2 PUSH1 0x20 ADD SWAP2 PUSH2 0x278 JUMP JUMPDEST DUP3 ADD SWAP2 SWAP1 PUSH0 MSTORE PUSH1 0x20 PUSH0 KECCAK256 SWAP1 JUMPDEST DUP2 SLOAD DUP2 MSTORE SWAP1 PUSH1 0x1 ADD SWAP1 PUSH1 0x20 ADD DUP1 DUP4 GT PUSH2 0x25B JUMPI DUP3 SWAP1 SUB PUSH1 0x1F AND DUP3 ADD SWAP2 JUMPDEST POP POP POP POP POP SWAP1 POP SWAP4 POP SWAP4 POP SWAP4 POP SWAP4 POP SWAP2 SWAP4 POP SWAP2 SWAP4 JUMP JUMPDEST PUSH0 PUSH1 0x40 MLOAD SWAP1 POP SWAP1 JUMP JUMPDEST PUSH0 DUP1 REVERT JUMPDEST PUSH0 DUP1 REVERT JUMPDEST PUSH0 DUP2 SWAP1 POP SWAP2 SWAP1 POP JUMP JUMPDEST PUSH2 0x2B1 DUP2 PUSH2 0x29F JUMP JUMPDEST DUP2 EQ PUSH2 0x2BB JUMPI PUSH0 DUP1 REVERT JUMPDEST POP JUMP JUMPDEST PUSH0 DUP2 CALLDATALOAD SWAP1 POP PUSH2 0x2CC DUP2 PUSH2 0x2A8 JUMP JUMPDEST SWAP3 SWAP2 POP POP JUMP JUMPDEST PUSH0 DUP1 REVERT JUMPDEST PUSH0 DUP1 REVERT JUMPDEST PUSH0 PUSH1 0x1F NOT PUSH1 0x1F DUP4 ADD AND SWAP1 POP SWAP2 SWAP1 POP JUMP JUMPDEST PUSH32 0x4E487B7100000000000000000000000000000000000000000000000000000000 PUSH0 MSTORE PUSH1 0x41 PUSH1 0x4 MSTORE PUSH1 0x24 PUSH0 REVERT JUMPDEST PUSH2 0x320 DUP3 PUSH2 0x2DA JUMP JUMPDEST DUP2 ADD DUP2 DUP2 LT PUSH8 0xFFFFFFFFFFFFFFFF DUP3 GT OR ISZERO PUSH2 0x33F JUMPI PUSH2 0x33E PUSH2 0x2EA JUMP JUMPDEST JUMPDEST DUP1 PUSH1 0x40 MSTORE POP POP POP JUMP JUMPDEST PUSH0 PUSH2 0x351 PUSH2 0x28E JUMP JUMPDEST SWAP1 POP PUSH2 0x35D DUP3 DUP3 PUSH2 0x317 JUMP JUMPDEST SWAP2 SWAP1 POP JUMP JUMPDEST PUSH0 PUSH8 0xFFFFFFFFFFFFFFFF DUP3 GT ISZERO PUSH2 0x37C JUMPI PUSH2 0x37B PUSH2 0x2EA JUMP JUMPDEST JUMPDEST PUSH2 0x385 DUP3 PUSH2 0x2DA JUMP JUMPDEST SWAP1 POP PUSH1 0x20 DUP2 ADD SWAP1 POP SWAP2 SWAP1 POP JUMP JUMPDEST DUP3 DUP2 DUP4 CALLDATACOPY PUSH0 DUP4 DUP4 ADD MSTORE POP POP POP JUMP JUMPDEST PUSH0 PUSH2 0x3B2 PUSH2 0x3AD DUP5 PUSH2 0x362 JUMP JUMPDEST PUSH2 0x348 JUMP JUMPDEST SWAP1 POP DUP3 DUP2 MSTORE PUSH1 0x20 DUP2 ADD DUP5 DUP5 DUP5 ADD GT ISZERO PUSH2 0x3CE JUMPI PUSH2 0x3CD PUSH2 0x2D6 JUMP JUMPDEST JUMPDEST PUSH2 0x3D9 DUP5 DUP3 DUP6 PUSH2 0x392 JUMP JUMPDEST POP SWAP4 SWAP3 POP POP POP JUMP JUMPDEST PUSH0 DUP3 PUSH1 0x1F DUP4 ADD SLT PUSH2 0x3F5 JUMPI PUSH2 0x3F4 PUSH2 0x2D2 JUMP JUMPDEST JUMPDEST DUP2 CALLDATALOAD PUSH2 0x405 DUP5 DUP3 PUSH1 0x20 DUP7 ADD PUSH2 0x3A0 JUMP JUMPDEST SWAP2 POP POP SWAP3 SWAP2 POP POP JUMP JUMPDEST PUSH0 DUP1 PUSH0 DUP1 PUSH1 0x80 DUP6 DUP8 SUB SLT ISZERO PUSH2 0x426 JUMPI PUSH2 0x425 PUSH2 0x297 JUMP JUMPDEST JUMPDEST PUSH0 PUSH2 0x433 DUP8 DUP3 DUP9 ADD PUSH2 0x2BE JUMP JUMPDEST SWAP5 POP POP PUSH1 0x20 DUP6 ADD CALLDATALOAD PUSH8 0xFFFFFFFFFFFFFFFF DUP2 GT ISZERO PUSH2 0x454 JUMPI PUSH2 0x453 PUSH2 0x29B JUMP JUMPDEST JUMPDEST PUSH2 0x460 DUP8 DUP3 DUP9 ADD PUSH2 0x3E1 JUMP JUMPDEST SWAP4 POP POP PUSH1 0x40 DUP6 ADD CALLDATALOAD PUSH8 0xFFFFFFFFFFFFFFFF DUP2 GT ISZERO PUSH2 0x481 JUMPI PUSH2 0x480 PUSH2 0x29B JUMP JUMPDEST JUMPDEST PUSH2 0x48D DUP8 DUP3 DUP9 ADD PUSH2 0x3E1 JUMP JUMPDEST SWAP3 POP POP PUSH1 0x60 DUP6 ADD CALLDATALOAD PUSH8 0xFFFFFFFFFFFFFFFF DUP2 GT ISZERO PUSH2 0x4AE JUMPI PUSH2 0x4AD PUSH2 0x29B JUMP JUMPDEST JUMPDEST PUSH2 0x4BA DUP8 DUP3 DUP9 ADD PUSH2 0x3E1 JUMP JUMPDEST SWAP2 POP POP SWAP3 SWAP6 SWAP2 SWAP5 POP SWAP3 POP JUMP JUMPDEST PUSH0 PUSH1 0x20 DUP3 DUP5 SUB SLT ISZERO PUSH2 0x4DB JUMPI PUSH2 0x4DA PUSH2 0x297 JUMP JUMPDEST JUMPDEST PUSH0 PUSH2 0x4E8 DUP5 DUP3 DUP6 ADD PUSH2 0x2BE JUMP JUMPDEST SWAP2 POP POP SWAP3 SWAP2 POP POP JUMP JUMPDEST PUSH2 0x4FA DUP2 PUSH2 0x29F JUMP JUMPDEST DUP3 MSTORE POP POP JUMP JUMPDEST PUSH0 DUP2 MLOAD SWAP1 POP SWAP2 SWAP1 POP JUMP JUMPDEST PUSH0 DUP3 DUP3 MSTORE PUSH1 0x20 DUP3 ADD SWAP1 POP SWAP3 SWAP2 POP POP JUMP JUMPDEST PUSH0 JUMPDEST DUP4 DUP2 LT ISZERO PUSH2 0x537 JUMPI DUP1 DUP3 ADD MLOAD DUP2 DUP5 ADD MSTORE PUSH1 0x20 DUP2 ADD SWAP1 POP PUSH2 0x51C JUMP JUMPDEST PUSH0 DUP5 DUP5 ADD MSTORE POP POP POP POP JUMP JUMPDEST PUSH0 PUSH2 0x54C DUP3 PUSH2 0x500 JUMP JUMPDEST PUSH2 0x556 DUP2 DUP6 PUSH2 0x50A JUMP JUMPDEST SWAP4 POP PUSH2 0x566 DUP2 DUP6 PUSH1 0x20 DUP7 ADD PUSH2 0x51A JUMP JUMPDEST PUSH2 0x56F DUP2 PUSH2 0x2DA JUMP JUMPDEST DUP5 ADD SWAP2 POP POP SWAP3 SWAP2 POP POP JUMP JUMPDEST PUSH0 PUSH1 0x80 DUP3 ADD SWAP1 POP PUSH2 0x58D PUSH0 DUP4 ADD DUP8 PUSH2 0x4F1 JUMP JUMPDEST DUP2 DUP2 SUB PUSH1 0x20 DUP4 ADD MSTORE PUSH2 0x59F DUP2 DUP7 PUSH2 0x542 JUMP JUMPDEST SWAP1 POP DUP2 DUP2 SUB PUSH1 0x40 DUP4 ADD MSTORE PUSH2 0x5B3 DUP2 DUP6 PUSH2 0x542 JUMP JUMPDEST SWAP1 POP DUP2 DUP2 SUB PUSH1 0x60 DUP4 ADD MSTORE PUSH2 0x5C7 DUP2 DUP5 PUSH2 0x542 JUMP JUMPDEST SWAP1 POP SWAP6 SWAP5 POP POP POP POP POP JUMP JUMPDEST PUSH32 0x4E487B7100000000000000000000000000000000000000000000000000000000 PUSH0 MSTORE PUSH1 0x22 PUSH1 0x4 MSTORE PUSH1 0x24 PUSH0 REVERT JUMPDEST PUSH0 PUSH1 0x2 DUP3 DIV SWAP1 POP PUSH1 0x1 DUP3 AND DUP1 PUSH2 0x616 JUMPI PUSH1 0x7F DUP3 AND SWAP2 POP JUMPDEST PUSH1 0x20 DUP3 LT DUP2 SUB PUSH2 0x629 JUMPI PUSH2 0x628 PUSH2 0x5D2 JUMP JUMPDEST JUMPDEST POP SWAP2 SWAP1 POP JUMP JUMPDEST PUSH0 DUP2 SWAP1 POP DUP2 PUSH0 MSTORE PUSH1 0x20 PUSH0 KECCAK256 SWAP1 POP SWAP2 SWAP1 POP JUMP JUMPDEST PUSH0 PUSH1 0x20 PUSH1 0x1F DUP4 ADD DIV SWAP1 POP SWAP2 SWAP1 POP JUMP JUMPDEST PUSH0 DUP3 DUP3 SHL SWAP1 POP SWAP3 SWAP2 POP POP JUMP JUMPDEST PUSH0 PUSH1 0x8 DUP4 MUL PUSH2 0x68B PUSH32 0xFFFFFFFFFFFFFFFFFFFFFFFFFFFFFFFFFFFFFFFFFFFFFFFFFFFFFFFFFFFFFFFF DUP3 PUSH2 0x650 JUMP JUMPDEST PUSH2 0x695 DUP7 DUP4 PUSH2 0x650 JUMP JUMPDEST SWAP6 POP DUP1 NOT DUP5 AND SWAP4 POP DUP1 DUP7 AND DUP5 OR SWAP3 POP POP POP SWAP4 SWAP3 POP POP POP JUMP JUMPDEST PUSH0 DUP2 SWAP1 POP SWAP2 SWAP1 POP JUMP JUMPDEST PUSH0 PUSH2 0x6D0 PUSH2 0x6CB PUSH2 0x6C6 DUP5 PUSH2 0x29F JUMP JUMPDEST PUSH2 0x6AD JUMP JUMPDEST PUSH2 0x29F JUMP JUMPDEST SWAP1 POP SWAP2 SWAP1 POP JUMP JUMPDEST PUSH0 DUP2 SWAP1 POP SWAP2 SWAP1 POP JUMP JUMPDEST PUSH2 0x6E9 DUP4 PUSH2 0x6B6 JUMP JUMPDEST PUSH2 0x6FD PUSH2 0x6F5 DUP3 PUSH2 0x6D7 JUMP JUMPDEST DUP5 DUP5 SLOAD PUSH2 0x65C JUMP JUMPDEST DUP3 SSTORE POP POP POP POP JUMP JUMPDEST PUSH0 SWAP1 JUMP JUMPDEST PUSH2 0x711 PUSH2 0x705 JUMP JUMPDEST PUSH2 0x71C DUP2 DUP5 DUP5 PUSH2 0x6E0 JUMP JUMPDEST POP POP POP JUMP JUMPDEST JUMPDEST DUP2 DUP2 LT ISZERO PUSH2 0x73F JUMPI PUSH2 0x734 PUSH0 DUP3 PUSH2 0x709 JUMP JUMPDEST PUSH1 0x1 DUP2 ADD SWAP1 POP PUSH2 0x722 JUMP JUMPDEST POP POP JUMP JUMPDEST PUSH1 0x1F DUP3 GT ISZERO PUSH2 0x784 JUMPI PUSH2 0x755 DUP2 PUSH2 0x62F JUMP JUMPDEST PUSH2 0x75E DUP5 PUSH2 0x641 JUMP JUMPDEST DUP2 ADD PUSH1 0x20 DUP6 LT ISZERO PUSH2 0x76D JUMPI DUP2 SWAP1 POP JUMPDEST PUSH2 0x781 PUSH2 0x779 DUP6 PUSH2 0x641 JUMP JUMPDEST DUP4 ADD DUP3 PUSH2 0x721 JUMP JUMPDEST POP POP JUMPDEST POP POP POP JUMP JUMPDEST PUSH0 DUP3 DUP3 SHR SWAP1 POP SWAP3 SWAP2 POP POP JUMP JUMPDEST PUSH0 PUSH2 0x7A4 PUSH0 NOT DUP5 PUSH1 0x8 MUL PUSH2 0x789 JUMP JUMPDEST NOT DUP1 DUP4 AND SWAP2 POP POP SWAP3 SWAP2 POP POP JUMP JUMPDEST PUSH0 PUSH2 0x7BC DUP4 DUP4 PUSH2 0x795 JUMP JUMPDEST SWAP2 POP DUP3 PUSH1 0x2 MUL DUP3 OR SWAP1 POP SWAP3 SWAP2 POP POP JUMP JUMPDEST PUSH2 0x7D5 DUP3 PUSH2 0x500 JUMP JUMPDEST PUSH8 0xFFFFFFFFFFFFFFFF DUP2 GT ISZERO PUSH2 0x7EE JUMPI PUSH2 0x7ED PUSH2 0x2EA JUMP JUMPDEST JUMPDEST PUSH2 0x7F8 DUP3 SLOAD PUSH2 0x5FF JUMP JUMPDEST PUSH2 0x803 DUP3 DUP3 DUP6 PUSH2 0x743 JUMP JUMPDEST PUSH0 PUSH1 0x20 SWAP1 POP PUSH1 0x1F DUP4 GT PUSH1 0x1 DUP2 EQ PUSH2 0x834 JUMPI PUSH0 DUP5 ISZERO PUSH2 0x822 JUMPI DUP3 DUP8 ADD MLOAD SWAP1 POP JUMPDEST PUSH2 0x82C DUP6 DUP3 PUSH2 0x7B1 JUMP JUMPDEST DUP7 SSTORE POP PUSH2 0x893 JUMP JUMPDEST PUSH1 0x1F NOT DUP5 AND PUSH2 0x842 DUP7 PUSH2 0x62F JUMP JUMPDEST PUSH0 JUMPDEST DUP3 DUP2 LT ISZERO PUSH2 0x869 JUMPI DUP5 DUP10 ADD MLOAD DUP3 SSTORE PUSH1 0x1 DUP3 ADD SWAP2 POP PUSH1 0x20 DUP6 ADD SWAP5 POP PUSH1 0x20 DUP2 ADD SWAP1 POP PUSH2 0x844 JUMP JUMPDEST DUP7 DUP4 LT ISZERO PUSH2 0x886 JUMPI DUP5 DUP10 ADD MLOAD PUSH2 0x882 PUSH1 0x1F DUP10 AND DUP3 PUSH2 0x795 JUMP JUMPDEST DUP4 SSTORE POP JUMPDEST PUSH1 0x1 PUSH1 0x2 DUP9 MUL ADD DUP9 SSTORE POP POP POP JUMPDEST POP POP POP POP POP POP JUMP INVALID LOG2 PUSH5 0x6970667358 0x22 SLT KECCAK256 0xE0 0x4E SHR SWAP4 0xD8 SWAP6 PUSH22 0x8B6489694CF33AAB6E589F2E621A467B5736F9DA044D SWAP13 0xAA DIV PUSH5 0x736F6C6343 STOP ADDMOD AND STOP CALLER "
				},
				"gasEstimates": {
					"creation": {
						"codeDepositCost": "451400",
						"executionCost": "484",
						"totalCost": "451884"
					},
					"external": {
						"RegisterDoctor(uint256,string,string,string)": "infinite",
						"ViewRegisterDoctor(uint256)": "infinite"
					}
				},
				"methodIdentifiers": {
					"RegisterDoctor(uint256,string,string,string)": "09f9f9ae",
					"ViewRegisterDoctor(uint256)": "2403d2e3"
				}
			},
			"storageLayout": {
				"storage": [
					{
						"astId": 13,
						"contract": "contracts/Health_record_program.sol:HealthRecordSystem",
						"label": "Regdoctor",
						"offset": 0,
						"slot": "0",
						"type": "t_struct(RegDoctor)10_storage"
					}
				],
				"types": {
					"t_string_storage": {
						"encoding": "bytes",
						"label": "string",
						"numberOfBytes": "32"
					},
					"t_struct(RegDoctor)10_storage": {
						"encoding": "inplace",
						"label": "struct HealthRecordSystem.RegDoctor",
						"members": [
							{
								"astId": 3,
								"contract": "contracts/Health_record_program.sol:HealthRecordSystem",
								"label": "id",
								"offset": 0,
								"slot": "0",
								"type": "t_uint256"
							},
							{
								"astId": 5,
								"contract": "contracts/Health_record_program.sol:HealthRecordSystem",
								"label": "name",
								"offset": 0,
								"slot": "1",
								"type": "t_string_storage"
							},
							{
								"astId": 7,
								"contract": "contracts/Health_record_program.sol:HealthRecordSystem",
								"label": "qualification",
								"offset": 0,
								"slot": "2",
								"type": "t_string_storage"
							},
							{
								"astId": 9,
								"contract": "contracts/Health_record_program.sol:HealthRecordSystem",
								"label": "workPlace",
								"offset": 0,
								"slot": "3",
								"type": "t_string_storage"
							}
						],
						"numberOfBytes": "128"
					},
					"t_uint256": {
						"encoding": "inplace",
						"label": "uint256",
						"numberOfBytes": "32"
					}
				}
			},
			"userdoc": {
				"kind": "user",
				"methods": {},
				"version": 1
			}
		}
	}
}